{
  "contractName": "Hands",
  "abi": [
    {
      "constant": true,
      "inputs": [
        {
          "name": "",
          "type": "uint256"
        }
      ],
      "name": "fingers",
      "outputs": [
        {
          "name": "id",
          "type": "uint256"
        },
        {
          "name": "name",
          "type": "string"
        },
        {
          "name": "voteCount",
          "type": "uint256"
        }
      ],
      "payable": false,
      "stateMutability": "view",
      "type": "function"
    },
    {
      "constant": true,
      "inputs": [],
      "name": "armsCount",
      "outputs": [
        {
          "name": "",
          "type": "uint256"
        }
      ],
      "payable": false,
      "stateMutability": "view",
      "type": "function"
    },
    {
      "constant": true,
      "inputs": [
        {
          "name": "",
          "type": "address"
        }
      ],
      "name": "voters",
      "outputs": [
        {
          "name": "",
          "type": "bool"
        }
      ],
      "payable": false,
      "stateMutability": "view",
      "type": "function"
    },
    {
      "inputs": [],
      "payable": false,
      "stateMutability": "nonpayable",
      "type": "constructor"
    },
    {
      "anonymous": false,
      "inputs": [
        {
          "indexed": true,
          "name": "_ArmId",
          "type": "uint256"
        }
      ],
      "name": "votedEvent",
      "type": "event"
    },
    {
      "constant": false,
      "inputs": [
        {
          "name": "_ArmId",
          "type": "uint256"
        }
      ],
      "name": "vote",
      "outputs": [],
      "payable": false,
      "stateMutability": "nonpayable",
      "type": "function"
    }
  ],
  "bytecode": "0x608060405234801561001057600080fd5b5061005e6040805190810160405280600381526020017f526564000000000000000000000000000000000000000000000000000000000081525061014a640100000000026401000000009004565b6100ab6040805190810160405280600481526020017f426c75650000000000000000000000000000000000000000000000000000000081525061014a640100000000026401000000009004565b6100f86040805190810160405280600581526020017f477265656e00000000000000000000000000000000000000000000000000000081525061014a640100000000026401000000009004565b6101456040805190810160405280600681526020017f4f72616e6765000000000000000000000000000000000000000000000000000081525061014a640100000000026401000000009004565b61026c565b600260008154809291906001019190505550606060405190810160405280600254815260200182815260200160008152506001600060025481526020019081526020016000206000820151816000015560208201518160010190805190602001906101b69291906101c7565b506040820151816002015590505050565b828054600181600116156101000203166002900490600052602060002090601f016020900481019282601f1061020857805160ff1916838001178555610236565b82800160010185558215610236579182015b8281111561023557825182559160200191906001019061021a565b5b5090506102439190610247565b5090565b61026991905b8082111561026557600081600090555060010161024d565b5090565b90565b61042e8061027b6000396000f3fe608060405260043610610062576000357c0100000000000000000000000000000000000000000000000000000000900463ffffffff1680630121b93f14610067578063455d1ba1146100a257806392b5912214610164578063a3ec138d1461018f575b600080fd5b34801561007357600080fd5b506100a06004803603602081101561008a57600080fd5b81019080803590602001909291905050506101f8565b005b3480156100ae57600080fd5b506100db600480360360208110156100c557600080fd5b810190808035906020019092919050505061031a565b6040518084815260200180602001838152602001828103825284818151815260200191508051906020019080838360005b8381101561012757808201518184015260208101905061010c565b50505050905090810190601f1680156101545780820380516001836020036101000a031916815260200191505b5094505050505060405180910390f35b34801561017057600080fd5b506101796103dc565b6040518082815260200191505060405180910390f35b34801561019b57600080fd5b506101de600480360360208110156101b257600080fd5b81019080803573ffffffffffffffffffffffffffffffffffffffff1690602001909291905050506103e2565b604051808215151515815260200191505060405180910390f35b6000803373ffffffffffffffffffffffffffffffffffffffff1673ffffffffffffffffffffffffffffffffffffffff16815260200190815260200160002060009054906101000a900460ff1615151561025057600080fd5b60008111801561026257506002548111155b151561026d57600080fd5b60016000803373ffffffffffffffffffffffffffffffffffffffff1673ffffffffffffffffffffffffffffffffffffffff16815260200190815260200160002060006101000a81548160ff0219169083151502179055506001600082815260200190815260200160002060020160008154809291906001019190505550807ffff3c900d938d21d0990d786e819f29b8d05c1ef587b462b939609625b684b1660405160405180910390a250565b6001602052806000526040600020600091509050806000015490806001018054600181600116156101000203166002900480601f0160208091040260200160405190810160405280929190818152602001828054600181600116156101000203166002900480156103cc5780601f106103a1576101008083540402835291602001916103cc565b820191906000526020600020905b8154815290600101906020018083116103af57829003601f168201915b5050505050908060020154905083565b60025481565b60006020528060005260406000206000915054906101000a900460ff168156fea165627a7a7230582047de33d631b9fb877a53b37d8b6886c6e50beb16b78a7254c050f097a0aa86c60029",
  "source": "pragma solidity >=0.5.0 <0.8.0;\n\ncontract Hands {\n    // Model a Arm\n    struct Arm {\n        uint id;\n        string name;\n        uint voteCount;\n    }\n\n    // Store accounts that have voted\n    mapping(address => bool) public voters;\n    // Store fingers\n    // Fetch Arm\n    mapping(uint => Arm) public fingers;\n    // Store fingers Count\n    uint public armsCount;\n\n    // voted event\n    event votedEvent (\n        uint indexed _ArmId\n    );\n\n    constructor () public {\n        addArm(\"Red\");\n        addArm(\"Blue\");\n        addArm(\"Green\");\n        addArm(\"Orange\");\n    }\n\n    function addArm (string memory _name) private {\n        armsCount ++;\n        fingers[armsCount] = Arm(armsCount, _name, 0);\n    }\n\n    function vote (uint _ArmId) public {\n        // require that they haven't voted before\n        require(!voters[msg.sender]);\n\n        // require a valid Arm\n        require(_ArmId > 0 && _ArmId <= armsCount);\n\n        // record that voter has voted\n        voters[msg.sender] = true;\n\n        // update Arm vote Count\n        fingers[_ArmId].voteCount ++;\n\n        // trigger voted event\n        emit votedEvent(_ArmId);\n    }\n}\n",
  "sourcePath": "/Users/robinn/Documents/arms-length/contracts/Hands.sol",
  "compiler": {
    "name": "solc",
    "version": "0.5.0+commit.1d4f565a.Emscripten.clang"
  },
  "schemaVersion": "3.3.4",
  "updatedAt": "2021-03-11T04:32:35.204Z",
  "networkType": "ethereum",
  "devdoc": {
    "methods": {}
  },
  "userdoc": {
    "methods": {}
  }
}